:020000040800F2
:10000000200A0020450100084D0100084F010008AA
:1000100051010008530100085501000800000000CC
:100020000000000000000000000000005701000870
:1000300059010008000000005B0100085D01000894
:100040005F0100085F0100085F0100085F01000810
:100050005F0100085F0100085F0100085F01000800
:100060005F0100085F0100085F0100085F010008F0
:100070005F0100085F0100085F0100085F010008E0
:100080005F0100085F0100085F0100085F010008D0
:100090005F0100085F0100085F0100085F010008C0
:1000A0005F0100085F0100085F0100085F010008B0
:1000B000750C00085F0100085F0100085F0100087F
:1000C0005F0100085F0100085F0100085F01000890
:1000D0005F0100088D0C0008DD0C00082D0D0008E4
:1000E0005F0100085F0100085F0100085F01000870
:1000F0005F0100085F0100085F0100085F01000860
:100100005F0100085F0100085F0100085F0100084F
:100110005F0100085F0100085F0100085F0100083F
:100120005F0100085F0100085F0100085F0100082F
:10013000DFF80CD000F0AAFA00480047650E00086E
:10014000200A00200648804706480047FEE7FEE7F1
:10015000FEE7FEE7FEE7FEE7FEE7FEE7FEE7FEE777
:10016000150C000831010008D2B201E000F8012BA3
:10017000491EFBD270470022F6E710B513460A4627
:1001800004461946FFF7F0FF204610BDF0B480EAA0
:100190000102D40F4200B2EB410F02D202460846E0
:1001A00011464A0042D0C30DDDB2C1F3C752AD1AA9
:1001B000202D35DAC1F3160141F4000204B1524298
:1001C000C5F1200602FA06F12A411044B3EBD05FD4
:1001D00023D0C4B1012DA0EBC35009DCF0BC4FF01B
:1001E000004202EAC352DBB200F5000000F0C2B9DF
:1001F000400000F1807000EBC350A0F1807040EA35
:10020000D170490009E0490841EAC071A0EBC35030
:1002100000F50000400800EBC350F0BC00F0A1B9AD
:100220006142012202EB4101001BF6E7F0BC70477E
:1002300081F00041AAE780F00040A7E780EA0102D0
:1002400010B502F00043400022D04A001FD0010E3A
:1002500001EB1261C0F35600C2F3560240F40000F5
:1002600042F40002A0FB022000047F39140400D0F5
:10027000401C50EA124001D44000491EC2B20C0694
:1002800004EBD010401C4008802A02D003E000207C
:1002900010BD20F00100002900DA0020184310BD35
:1002A00030B480EA010202F0004530F0004221F053
:1002B000004013D090B1C30DD40DC2F31601C0F3AA
:1002C0001600E41A41F4000140F400027D3491422A
:1002D00001D3641C00E04900002C02DA30BC00208D
:1002E00070474FF400000023914201D3891A034361
:1002F00040084FEA4101F7D151B1914202D14FF08C
:10030000004105E002D24FF0010101E06FF0010170
:1003100003EBC450284430BC00F023B92DE9FE4F54
:1003200081EA030404F0004421F0004100944FF0FE
:10033000000B23F0004350EA01045ED052EA0304AC
:100340005BD0C3F30A54C1F30A552C44A4F2F3342E
:100350000194A0FB0254C1F3130141F48011C3F3D3
:10036000130343F4801301FB024400FB034E840A91
:10037000970A44EA815447EA8357A4FB0768029529
:100380008D0A05FB07854FEA932C04FB0C542705C7
:10039000029D4FEA065847EA1637B5EB08056EEBA3
:1003A000070C870E920E47EA811742EA8312A7FBD9
:1003B0000201B6EB0B0164EB00042B0D43EA0C3396
:1003C0005E1844EB1C50DA465146E7FB0201C5F3C8
:1003D00013044FEA0B3343EA14534FEA0432019CEF
:1003E00043EA0603A4F10C040294009CCDE900B496
:1003F00000F0FDF803B0BDE8F08F00200146F9E7FA
:100400002DE9F04D81EA030404F0004B21F0004592
:1004100014464FF0000A23F0004150EA050220D0B4
:1004200054EA01021DD0C5F30A570246C5F313036F
:10043000C1F31300C1F30A5640F4801543F480134E
:10044000A7EB0608101BD64608F2FD3873EB050033
:1004500002D308F1010801E092185B41B8F1000FE6
:1004600003DA00200146BDE8F08D00204FF4801132
:10047000064684460EE0171B73EB050705D3121BD7
:1004800063EB050306434CEA010C49084FEA3000D0
:1004900092185B4150EA0107EDD152EA030012D0F5
:1004A00082EA040083EA0501084305D0101BAB4132
:1004B00006D20122002306E000224FF0004302E0B2
:1004C0006FF0010253101AEB06004CEB085110EBD1
:1004D0000A0041EB0B01BDE8F04D00F079B896231E
:1004E0000022114600F046B80EB540F233410291A9
:1004F0000021CDE900110A460B4600F078F803B060
:1005000000BD20F00040C10DC0F3160040F4000013
:100510007F2901DA00207047962903DCC1F196019A
:10052000C840704796398840704701F0004330B4A6
:1005300021F0004150EA010206D00A0DA2F56072D6
:10054000C1F31301002A02DC30BC00207047440FC5
:1005500044EAC104C100E01830BC00EBC250AFF364
:1005600000800029A8BF7047401C490008BF20F048
:100570000100704710B4B0FA80FC00FA0CF050EAA9
:10058000010404BF10BC704749B1CCF1200421FA2A
:1005900004F411FA0CF118BF012121430843A3EB25
:1005A0000C01CB1D4FEA00614FEA102042BF002032
:1005B00010BC704700EBC35010440029A4BF10BC0E
:1005C0007047401C490008BF20F0010010BC704774
:1005D00010B5141E73F1000408DA401C41F100014B
:1005E00092185B411A4301D120F0010010BD2DE9A2
:1005F000F04D92469B4611B1B1FA81F202E0B0FA99
:1006000080F22032904600F053F804460F4640EA4C
:100610000A0041EA0B0153465A46084313D01146DB
:1006200053EA010019D0C8F14002504600F04FF8DB
:1006300005460E4650465946424600F039F80843F2
:1006400005D0012004E020463946BDE8F08D0020A9
:10065000054346EAE0762C4337430A986305E40AEB
:10066000A0EB08000022FD0A44EA47540A3002D5F4
:1006700000200146E9E7010510196941DDE9084557
:1006800000196941BDE8F04DA2E70000064C074D96
:1006900006E0E06840F0010394E807009847103452
:1006A000AC42F6D3FFF748FDB0100008D0100008A8
:1006B000202A04DB203A00FA02F100207047914022
:1006C000C2F1200320FA03F3194390407047202A17
:1006D00004DB203A21FA02F00021704721FA02F3EC
:1006E000D040C2F120029140084319467047F0B54E
:1006F00097B006460F461546582101A8FFF73BFD67
:10070000502D01DD17B0F0BD002101AAE81C1154E5
:10071000AA208DF804008DF805008DF806608DF88C
:100720000750002405E0395D201D01AA1154601C0A
:10073000C4B2AC42F7DB00240AE001A9281D085C22
:10074000095D0844C1B201AA281D1154601CC4B23D
:10075000281D8442F1DB002405E001A9085D00F0BA
:1007600047F9601CC4B2681D8442F6DB00BFC9E7CC
:100770002DE9F04794B08246884614461F46502122
:100780006846FFF7F8FC002512E004FB0589002607
:100790000AE009EB0400401E801B007804FB0561A1
:1007A0000DF80100701CC6B2A642F2DB681CC5B28F
:1007B00097FBF4F0A842E8DC3A4669465046FFF75A
:1007C00096FF14B0BDE8F0874948806940F0040006
:1007D000474988610846806940F0080088610846FA
:1007E000806940F0100088614FF6FF704149086051
:1007F0006FF0FF0040490860404908603C4880694C
:1008000040F400703A4988610846C06840F40070BE
:10081000C8600846C06820F40070C8600846406898
:1008200020F4404048600846406840F4004048607A
:100830003348006833490840314908600846006879
:1008400008600846006820F480700860081D006891
:1008500020F00200091D08600846006820F46020AE
:1008600008600846006840F4602008600846006898
:1008700040F4801008600846006820F400600860BA
:100880001F482830006820F470001D492831086096
:100890000846006808603F201949083108601A4876
:1008A000091D08601648001D006840F00100144949
:1008B000091D08600846006840F00800086000BF95
:1008C0000F48001D006800F008000028F8D10C480F
:1008D000001D006840F004000949091D086000BFC0
:1008E0000748001D006800F004000028F8D1704798
:1008F0000010024000080140000C014000100140BF
:1009000004240140FFFFF00000F0FF3F01460F48C4
:10091000006820F01F000D4A106010460068084370
:1009200010600A482C38006840F48000074A2C3ACE
:10093000106000BF05483438006800F0020000284D
:10094000F8D002481830006880B270473424014063
:1009500070B506460B460024002505E03046FFF73B
:10096000D5FF0444681CC5B29D42F7DBB4FBF3F02D
:1009700080B270BD00B5002015490861C860142020
:10098000486100208861C8610846006840F00100A5
:100990000860084640680F4908400D49486008460D
:1009A00000680D4908400A4908600846006820F4BC
:1009B000802008600846406820F4FE00486000205F
:1009C000886000214FF0006000F008F800BD0000D2
:1009D000001002400000FFF8FFFFF6FE024A0A4046
:1009E0000243024B1A60704780FFFF1F08ED00E0D2
:1009F00000BF0549098801F080010029F9D00249AA
:100A0000091D088070470000003801401F4A9269A4
:100A100042F004021D4B9A611D4A126822F47022B2
:100A20001B4B1A601A46126842F400221A601A46DA
:100A3000126822F470021A601A46126842F44012D8
:100A40001A600022134B1A60002000BF114A843A3A
:100A50001268002AFAD100210EE001220D4B1A6023
:100A6000400000220C4BC3F894210A4A843A1268D1
:100A700002B1401C4A1CD1B21829EEDB0122054B01
:100A80001A600022044BC3F8942170470010024002
:100A900000080140940121420000214210B500F0FD
:100AA00001F810BD0CB5002001900090334800689B
:100AB00040F480303149086000BF3048006800F4DD
:100AC000003000900198401C0190009818B90198DE
:100AD000B0F5A06FF1D12948006800F4003010B1E2
:100AE0000120009001E0002000900098012843D1EF
:100AF0002348006840F0100021490860084600685B
:100B000020F0030008600846006840F0020008601A
:100B10001A484068194948600846406848600846D5
:100B2000406840F4806048600846406820F47C10CB
:100B300048600846406840F4E8104860084600688D
:100B400040F08070086000BF0C48006800F0007042
:100B50000028F9D00948406820F0030007494860A0
:100B60000846406840F00200486000BF0348406803
:100B700000F00C000828F9D10CBD00000010024064
:100B80000020024030B504460025FFF7F3FE1F4861
:100B9000006840F480301D49086000BF1B480068B1
:100BA000400C0028FAD04FF4806018494860A01E1D
:100BB000C4B20846406840EA84404860084640683D
:100BC00040F4803048601248006840F0320010491C
:100BD00008600E48006840F080700C49086000BF53
:100BE0000A480068400E0028FAD00848406840F0E3
:100BF00002000649486005E004484068C0F38705E4
:100C000005F00305022DF7D130BD000000100240B1
:100C10000020024010B51348006840F0010011495F
:100C2000086008464068104908400E494860084678
:100C300000680E4908400B4908600846006820F427
:100C4000802008600846406820F4FE0048604FF4A9
:100C50001F008860FFF722FF4FF000600449086022
:100C600010BD0000001002400000FFF8FFFFF6FE7C
:100C700008ED00E004480078401C0349087000209B
:100C80004FF08041088270470C0000200E4909880F
:100C900001F02001B1B10C49091D0988C8B20B4906
:100CA000098879B90A490988B1F5007F0ADA084943
:100CB0000A880988491C064B198006498854052171
:100CC000054A1180704700000038014000000020F4
:100CD0000200002020000020040000200E490988A6
:100CE00001F02001B1B10C49091D0988C8B20B49B6
:100CF000098879B90A490988B1F5007F0ADA0849F3
:100D00000A880988491C064B198006498854052120
:100D1000054A118070470000004400401600002082
:100D200018000020200400201A0000200E49098825
:100D300001F02001B1B10C49091D0988C8B20B4965
:100D4000098879B90A490988B1F5007F0ADA0849A2
:100D50000A880988491C064B1980064988540521D0
:100D6000054A118070470000004800400E00002036
:100D700010000020200200201200002002E008C81D
:100D8000121F08C1002AFAD170477047002001E005
:100D900001C1121F002AFBD1704700004FF0E02173
:100DA000096921F004014FF0E0221161C21700EB44
:100DB0005272C2F3C702074B1A701946097801EB49
:100DC0004102C2EBC1114FF6FF7202EAC101024AB1
:100DD000118070471C0000201E00002001460D4AB3
:100DE00012884A434FF0E0235A6100229A6101229F
:100DF0001A6100BF4FF0E022106900F001021AB141
:100E000000F48032002AF5D000224FF0E0231A616E
:100E10009A6170471E0000201148C06940F001002F
:100E20000F49C86141F61F40890408853220888532
:100E30004007808940F0010088811C200121814009
:100E40004209920002F1E022C2F8001100BF4FF007
:100E50008040008840F001004FF0804108807047DA
:100E60000010024086B00020039004900920FFF794
:100E700089FEFFF7D1FF4FF4E13000F049F8482038
:100E8000FFF78CFFFFF7A0FC37E032210620FFF7C9
:100E90005FFD029032210720FFF75AFDFFF7B6FDF4
:100EA000824632210AFB01F0FFF71EFB134A144B66
:100EB000CDE90001FFF732FA06460022114BFFF799
:100EC0009FFA04464FF066320F4BFFF727FA804631
:100ED000FFF72BFB83460298FFF701FB03900B49BA
:100EE0005846FFF7ABF904900823042203A9F22027
:100EF000FFF73EFC0520FFF771FFC6E79A99999925
:100F00009999234000006041666604400000484211
:100F10002DE9F05F04466048806940F004005E49B6
:100F200088615E48006820F0F0005C49086008466F
:100F3000006840F0B00008600846006820F4706067
:100F400008600846006840F4006008605248806904
:100F500040F48040504988615148008820F4805016
:100F60004F490880081D008820F44050091D088062
:100F7000081F008840F00800091F08800846008804
:100F800040F0040008800846008840F020000880F7
:100F90002001FFF7A4FA804641464248FFF780F956
:100FA00005462846FFF7ADFA86B23046FFF797FAB6
:100FB00080462946FFF73FF907464FF6FF7000EAE3
:100FC00006164FF083413846FFF738F98146304620
:100FD000FFF785FA82464946FFF7D8F88046FFF7C3
:100FE00090FA2F49091F0880252005224FF0020C96
:100FF0004FF001081346C3F1070BBBF1040F02D9F0
:101000004FF0040B01E0C3F1070BDA4603F1040BC8
:10101000BBF1070F02D24FF0000B01E0A3F1030B6D
:10102000D9464FF0010B0BFA0AFBABF1010B0BEAAF
:101030000C0B0BFA09FB4FF0010E0EFA09FEAEF194
:10104000010E0EEA080E4BEA0E0100BF002809DA75
:101050000A074FEA126C144A00F00F031B1F02F834
:1010600003C003E00A07130E104A135400BF2520E3
:1010700000F01F02012191404209920002F1E0229A
:10108000C2F8001100BF0648008840F4005004492F
:101090000880BDE8F09F00000010024004080140F5
:1010A0000C3801404054894C18ED00E000E400E0A9
:1010B000D010000800000020200000007C0D000877
:1010C000F010000820000020000A00008C0D00082D
:1010D0000000000000000000000000000000000010
:1010E0000000000000000000000000000000000000
:0400000508000131BD
:00000001FF
