:020000040800F2
:10000000200A0020450100084D0100084F010008AA
:1000100051010008530100085501000800000000CC
:100020000000000000000000000000005701000870
:1000300059010008000000005B0100085D01000894
:100040005F0100085F0100085F0100085F01000810
:100050005F0100085F0100085F0100085F01000800
:100060005F0100085F0100085F0100085F010008F0
:100070005F0100085F0100085F0100085F010008E0
:100080005F0100085F0100085F0100085F010008D0
:100090005F0100085F0100085F0100085F010008C0
:1000A0005F0100085F0100085F0100085F010008B0
:1000B000510D00085F0100085F0100085F010008A2
:1000C0005F0100085F0100085F0100085F01000890
:1000D0005F010008690D0008B90D0008090E00084D
:1000E0005F0100085F0100085F0100085F01000870
:1000F0005F0100085F0100085F0100085F01000860
:100100005F0100085F0100085F0100085F0100084F
:100110005F0100085F0100085F0100085F0100083F
:100120005F0100085F0100085F0100085F0100082F
:10013000DFF80CD000F0C8FB00480047F5170008B6
:10014000200A00200648804706480047FEE7FEE7F1
:10015000FEE7FEE7FEE7FEE7FEE7FEE7FEE7FEE777
:10016000F10C000831010008F0B480EA0102D40F5C
:100170004200B2EB410F02D20246084611464A0045
:1001800042D0C30DDDB2C1F3C752AD1A202D35DA0E
:10019000C1F3160141F4000204B15242C5F1200638
:1001A00002FA06F12A411044B3EBD05F23D0C4B168
:1001B000012DA0EBC35009DCF0BC4FF0004202EA75
:1001C000C352DBB200F5000000F0ADB9400000F111
:1001D000807000EBC350A0F1807040EAD1704900FC
:1001E00009E0490841EAC071A0EBC35000F50000E6
:1001F000400800EBC350F0BC00F08CB96142012212
:1002000002EB4101001BF6E7F0BC704781F00041B2
:10021000AAE780F00040A7E780EA010210B502F0EB
:100220000043400022D04A001FD0010E01EB1261B2
:10023000C0F35600C2F3560240F4000042F400023C
:10024000A0FB022000047F39140400D0401C50EAB7
:10025000124001D44000491EC2B20C0604EBD0107B
:10026000401C4008802A02D003E0002010BD20F08E
:100270000100002900DA0020184310BD30B480EAE4
:10028000010202F0004530F0004221F0004013D09E
:1002900090B1C30DD40DC2F31601C0F31600E41AD9
:1002A00041F4000140F400027D34914201D3641C0A
:1002B00000E04900002C02DA30BC002070474FF407
:1002C00000000023914201D3891A034340084FEAFA
:1002D0004101F7D151B1914202D14FF0004105E007
:1002E00002D24FF0010101E06FF0010103EBC450B5
:1002F000284430BC00F00EB92DE9FE4F81EA03041A
:1003000004F0004421F0004100944FF0000B23F072
:10031000004350EA01045ED052EA03045BD0C3F309
:100320000A54C1F30A552C44A4F2F3340194A0FBFF
:100330000254C1F3130141F48011C3F3130343F4D6
:10034000801301FB024400FB034E840A970A44EA2F
:10035000815447EA8357A4FB076802958D0A05FB81
:1003600007854FEA932C04FB0C542705029D4FEAA6
:10037000065847EA1637B5EB08056EEB070C870EF3
:10038000920E47EA811742EA8312A7FB0201B6EBFD
:100390000B0164EB00042B0D43EA0C335E1844EBB5
:1003A0001C50DA465146E7FB0201C5F313044FEA3D
:1003B0000B3343EA14534FEA0432019C43EA060329
:1003C000A4F10C040294009CCDE900B400F0E8F81C
:1003D00003B0BDE8F08F00200146F9E79623002224
:1003E000114600F0A0B80EB540F233410291002151
:1003F000CDE900110A460B4600F0D2F803B000BD6B
:1004000020F00040C10DC0F3160040F400007F2929
:1004100001DA00207047962903DCC1F19601C8403B
:10042000704796398840704700F0004230F0004035
:100430000AD0C10D01F56071C0F3160042EA015106
:10044000C20840071143704700200146704701F081
:10045000004330B421F0004150EA010206D00A0DF9
:10046000A2F56072C1F31301002A02DC30BC002047
:100470007047440F44EAC104C100E01830BC00EBEF
:10048000C25000F047B830B50B460146002020228C
:10049000012409E021FA02F59D4205D303FA02F591
:1004A000491B04FA02F52844151EA2F10102F1DCF1
:1004B00030BD2DE9F05F0546002092469B468846F8
:1004C0000646814640241BE02846414647462246D0
:1004D00000F01BFA53465A46C01A914110D31146F8
:1004E0001846224600F002FA2D1A67EB01084F4623
:1004F00022460120002100F0F9F917EB00094E41D6
:10050000201EA4F10104DFDC484631462A4643465A
:10051000BDE8F09F0029A8BF7047401C490008BFF4
:1005200020F00100704710B4B0FA80FC00FA0CF023
:1005300050EA010404BF10BC704749B1CCF120045B
:1005400021FA04F411FA0CF118BF012121430843E8
:10055000A3EB0C01CB1D4FEA00614FEA102042BF14
:10056000002010BC704700EBC35010440029A4BF0A
:1005700010BC7047401C490008BF20F0010010BCAF
:10058000704710B5141E73F1000408DA401C41F1E5
:10059000000192185B411A4301D120F0010010BD07
:1005A0002DE9F04D92469B4611B1B1FA81F202E07D
:1005B000B0FA80F22032904600F098F904460F46D7
:1005C00040EA0A0041EA0B0153465A46084313D059
:1005D000114653EA010019D0C8F14002504600F01C
:1005E00094F905460E4650465946424600F07EF9BB
:1005F000084305D0012004E020463946BDE8F08DCF
:100600000020054346EAE0762C4337430A98630509
:10061000E40AA0EB08000022FD0A44EA47540A302D
:1006200002D500200146E9E7010510196941DDE91D
:10063000084500196941BDE8F04DA2E72DE9FE4FDC
:10064000804681EA0300C00F0C46009021F0004173
:1006500023F00045B8EB0200A94105D240462146EF
:1006600090461C460B46024623F00040104347D0FC
:10067000270DC7F30A00C3F30A510290401A0190F4
:1006800040286BDAC3F3130040F4801B00989246B5
:1006900020B10023D2EB030A63EB0B0B0198594600
:1006A000C0F14002504600F021F906460D46504682
:1006B0005946019A00F039F910EB08006141002415
:1006C00087EA115284EAE7731A4340D0009A62B372
:1006D000019A012A4FEA075215DC001B61EB020167
:1006E0004FF0004202EA0752CDE90042001C41F5FA
:1006F000801132462B46FFF753FF03B0BDE8F08F61
:1007000040462146F9E7001B61EB0201001C41F560
:10071000801300185B412018A2F5001747EB030176
:1007200040EAD570B6196D4111E06D084FEA360602
:1007300045EAC0754FEA0752001B61EB0201001C3D
:1007400041F5801149084FEA300000195141324605
:100750002B4603B0BDE8F04FFFF713BF009801220E
:1007600040000023D0EB020263EBE07300982146C7
:100770004FEAE074B8EB000061EB0401E9E783F0B5
:1007800000435BE781F0004158E72DE9F04D81EA35
:10079000030404F0004B21F0004514464FF0000A1A
:1007A00023F0004150EA050220D054EA01021DD096
:1007B000C5F30A570246C5F31303C1F31300C1F38F
:1007C0000A5640F4801543F48013A7EB0608101B6B
:1007D000D64608F2FD3873EB050002D308F1010894
:1007E00001E092185B41B8F1000F03DA00200146E6
:1007F000BDE8F08D00204FF48011064684460EE0DF
:10080000171B73EB050705D3121B63EB05030643A8
:100810004CEA010C49084FEA300092185B4150EA5B
:100820000107EDD152EA030012D082EA040083EA04
:100830000501084305D0101BAB4106D2012200235D
:1008400006E000224FF0004302E06FF00102531077
:100850001AEB06004CEB085110EB0A0041EB0B01C0
:10086000BDE8F04DFFF78DBEC1F30A52C1F313018D
:1008700040F2FF3341F480119A4202DA002001462F
:10088000704740F233439A42A2F2334202DC5242B2
:1008900000F03BB800F02AB830B5041E71F1000436
:1008A00004DB4FF00044404264EB0101141E73F17D
:1008B000000405DB1C464FF00043524263EB040387
:1008C000994208BF904230BD064C074D06E0E068F3
:1008D00040F0010394E8070098471034AC42F6D387
:1008E000FFF72AFC381A0008581A0008202A04DBEF
:1008F000203A00FA02F1002070479140C2F1200333
:1009000020FA03F3194390407047202A04DB203A71
:1009100021FA02F00021704721FA02F3D040C2F11F
:1009200020029140084319467047202A06DBCB1766
:10093000203A41FA02F043EAE07306E041FA02F39A
:10094000D040C2F120029140084319467047000090
:100950004948806940F00400474988610846806939
:1009600040F0080088610846806940F01000886106
:100970004FF6FF70414908606FF0FF004049086082
:10098000404908603C48806940F400703A498861F9
:100990000846C06840F40070C8600846C06820F48B
:1009A0000070C8600846406820F44040486008462F
:1009B000406840F4004048603348006833490840CC
:1009C000314908600846006808600846006820F45D
:1009D00080700860081D006820F00200091D086092
:1009E0000846006820F4602008600846006840F46B
:1009F000602008600846006840F4801008600846DF
:100A0000006820F4006008601F482830006820F467
:100A100070001D49283108600846006808603F20C2
:100A20001949083108601A48091D08601648001D58
:100A3000006840F001001449091D0860084600687C
:100A400040F00800086000BF0F48001D006800F07B
:100A500008000028F8D10C48001D006840F0040090
:100A60000949091D086000BF0748001D006800F023
:100A700004000028F8D1704700100240000801402F
:100A8000000C01400010014004240140FFFFF00071
:100A900000F0FF3F01460F48006820F01F000D4A9C
:100AA000106010460068084310600A482C3800683F
:100AB00040F48000074A2C3A106000BF05483438E3
:100AC000006800F002000028F8D0024818300068E2
:100AD00080B270473424014070B506460B460024AE
:100AE000002505E03046FFF7D5FF0444681CC5B279
:100AF0009D42F7DBB4FBF3F080B270BD00B500207F
:100B000015490861C8601420486100208861C861E7
:100B10000846006840F001000860084640680F4938
:100B200008400D494860084600680D4908400A49D8
:100B300008600846006820F4802008600846406885
:100B400020F4FE0048600020886000214FF0006023
:100B500000F008F800BD0000001002400000FFF89F
:100B6000FFFFF6FE024A0A400243024B1A6070473A
:100B700080FFFF1F08ED00E010B500F001F810BD88
:100B80000CB50020019000903348006840F480309C
:100B90003149086000BF3048006800F40030009020
:100BA0000198401C0190009818B90198B0F5A06F09
:100BB000F1D12948006800F4003010B10120009004
:100BC00001E0002000900098012843D123480068EC
:100BD00040F01000214908600846006820F003003A
:100BE00008600846006840F0020008601A48406843
:100BF000194948600846406848600846406840F423
:100C0000806048600846406820F47C1048600846D0
:100C1000406840F4E81048600846006840F0807082
:100C2000086000BF0C48006800F000700028F9D090
:100C30000948406820F003000749486008464068BA
:100C400040F00200486000BF0348406800F00C001C
:100C50000828F9D10CBD000000100240002002401D
:100C600030B504460025FFF749FF1F48006840F4EF
:100C700080301D49086000BF1B480068400C0028F8
:100C8000FAD04FF4806018494860A01EC4B20846EC
:100C9000406840EA844048600846406840F480303C
:100CA00048601248006840F03200104908600E4861
:100CB000006840F080700C49086000BF0A48006876
:100CC000400E0028FAD00848406840F0020006496B
:100CD000486005E004484068C0F3870505F0030557
:100CE000022DF7D130BD000000100240002002406C
:100CF00010B51348006840F001001149086008462B
:100D00004068104908400E494860084600680E498E
:100D100008400B4908600846006820F480200860FD
:100D20000846406820F4FE0048604FF41F008860C9
:100D3000FFF722FF4FF000600449086010BD00007B
:100D4000001002400000FFF8FFFFF6FE08ED00E093
:100D500004480078401C0349087000204FF080418F
:100D6000088270470C0000200E49098801F020011C
:100D7000B1B10C49091D0988C8B20B49098879B974
:100D80000A490988B1F5007F0ADA08490A88098802
:100D9000491C064B1980064988540521054A1180D3
:100DA00070470000003801400000002002000020D1
:100DB00020000020040000200E49098801F02001D5
:100DC000B1B10C49091D0988C8B20B49098879B924
:100DD0000A490988B1F5007F0ADA08490A880988B2
:100DE000491C064B1980064988540521054A118083
:100DF000704700000044004016000020180000204A
:100E0000200400201A0000200E49098801F020016A
:100E1000B1B10C49091D0988C8B20B49098879B9D3
:100E20000A490988B1F5007F0ADA08490A88098861
:100E3000491C064B1980064988540521054A118032
:100E400070470000004800400E0000201000002005
:100E500020020020120000200FB4054B10B503A99A
:100E6000044A029800F0DAF810BC5DF814FB0000A8
:100E70008D1700080800002002E008C8121F08C1F2
:100E8000002AFAD170477047002001E001C1121F0B
:100E9000002AFBD1704700002DE9FF5F82B00021DE
:100EA000DDE90430020DDDF840B0034318D044F60C
:100EB0001050A2F2FF3242431514119801281FD09E
:100EC000A5EB0B00401C5FEA000A4FF000064E4FF6
:100ED000DFF83891B046504615D5CAF1000413E04A
:100EE000119801244AA3012801D16FEA0B0102984D
:100EF000119AC0E90031C0E9024206B0BDE8F09F96
:100F0000CBF10000DFE704460021404A491842EBDC
:100F10000450CDE9001012E0E00707D032463B460E
:100F200040464946FFF7E8F98046894632463B4647
:100F300010461946FFF7E0F906460F466410002CEC
:100F4000EAD1DDE90401DDE90023BAF1000F06DA98
:100F5000FFF7D2F942464B46FFF7CEF905E0FFF71F
:100F600014FC42464B46FFF710FC04460E46002296
:100F7000284BFFF791FC03D84FF0FF30014607E004
:100F80000022254B20463146FFF758FBFFF76CFC4B
:100F9000102409E0002C0ADB0A220023FFF789FA5B
:100FA000039B30321A55641E50EA0102F2D1641CD0
:100FB000039AC4F111031444119A012A03D00122A7
:100FC00008430DD10AE0084304D000204FF0110B74
:100FD000119072E7A3EB0B056D1E0DE05B4504DD80
:100FE0004FF0000205F1010504E003DA4FF00002C2
:100FF000A5F10105002AECD002981199C0E902314F
:10100000C0E9004579E70000000014400000F03F0F
:10101000300000000000F0430000E03F2DE9FF4FEA
:1010200095B09B468946064600250FE2252877D1D4
:1010300000242746F84A0121059400E0044316F8ED
:10104000013F203B01FA03F01042F7D130782A2803
:1010500011D06FF02F033078A0F13002092A16D892
:10106000059A44F0020402EB820203EB42021044B0
:10107000761C0590EFE759F8042B0592002A03DA55
:10108000504244F40054059044F00204761C307839
:101090002E2816D116F8010F44F004042A280DD08A
:1010A0006FF02F023078A0F13003092B09D807EB3D
:1010B000870302EB4303C718761CF3E759F8047B58
:1010C000761C30786C280FD006DC4C2817D06828A6
:1010D0000DD06A2814D104E0742810D07A280FD1DA
:1010E0000DE044F400140AE044F4801401E044F4F8
:1010F00040147278824202D104F58014761C761C6A
:10110000307866280BD013DC582877D009DC00280B
:1011100075D04528F6D04628F4D047281AD19DE14D
:1011200018E0632835D0642879D0652812D195E17C
:10113000702873D008DC6728F1D069286FD06E283A
:101140000DD06F2806D1B5E073282CD0752875D046
:10115000782874D05A46179990476D1C75E1C4F3EE
:101160000250022809D003280DD0D9F80010042815
:101170000DD00D6009F1040967E1D9F80010EA17F4
:10118000C1E90052F6E7D9F800100D80F2E70D70C2
:10119000F0E719F8041B8DF8001000208DF801000D
:1011A000EA46012003E059F804AB4FF0FF30610735
:1011B0004FF0000102D40DE008F101018846B94268
:1011C0000FDA8045F8DB1AF808100029F4D108E09E
:1011D00008F1010188468142FADB1AF8081000295B
:1011E000F6D105985B46A0EB080721463846179ACA
:1011F00000F094FA284400EB080507E04DE029E1EF
:101200000DE01AF8010B5A4617999047B8F10108FA
:10121000F7D25B4621463846179A13E142E00A228C
:101220000092C4F302524FF0000A022A08D059F883
:1012300004CB032A4FEAEC710AD00DE029E02AE042
:1012400009F1070121F00702F2E802C1914609E025
:101250000FFA8CFC4FEAEC71042A03D14FFA8CFC94
:101260004FEAEC71002907DA0A460021DCF1000C94
:1012700061EB02012D2202E0220504D52B228DF81C
:101280000420012203E0E20701D02022F7E7904684
:1012900059E00A2102E010220DE010214FF0000A6F
:1012A00000910BE010224FF0000A44F004040827DC
:1012B000009203E008224FF0000A0092C4F30252A9
:1012C000022A05D059F804CB0021032A08D009E0EE
:1012D00009F1070121F00702F2E802C1914605E099
:1012E0001FFA8CFC042A01D10CF0FF0C4FF000080F
:1012F000220728D5702806D0009B83F0100353EAFC
:101300000A0305D00EE040228DF80420012208E0F7
:101310005CEA010206D030228DF804208DF8050029
:1013200002229046009B83F0080353EA0A030AD185
:101330005CEA010201D1620705D530228DF8042054
:101340004FF001087F1E582804D034A003900EA847
:1013500002900DE036A0F9E753466046009AFFF789
:10136000A8F884460398825C0298401E029002709E
:101370005CEA0100F0D1029806A9081A00F1200ADF
:10138000600702D524F4803400E00127574502DDD0
:10139000A7EB0A0000E0002000EB0A01009005988E
:1013A0004144401A0590E00306D45B462146179A53
:1013B000059800F0B3F90544002706E001A85A4655
:1013C000C05D179990476D1C7F1C4745F6DBE00315
:1013D0000CD55B462146179A059800F09FF9054405
:1013E00004E030205A46179990476D1C0099481E1A
:1013F00000900029F5DC08E0029802995A4600782E
:10140000491C0291179990476D1CBAF10001AAF18D
:10141000010AF1DC65E100000928010030313233B6
:101420003435363738396162636465660000000020
:10143000303132333435363738394142434445460A
:101440000000000000F058F90544761C30780028B0
:101450007FF4ECAD19B02846BDE8F08F620700D4E8
:10146000062709F1070222F0070CFCE80223E146F7
:1014700003F000485FEA080C02D00FF2702C0DE078
:101480005FEA045C02D50FF2682C07E05FEAC47CD7
:1014900002D00FF2602C01E0AFF2700C4FF0FF3879
:1014A00023F00043CDF850C065280CD006DC452859
:1014B00009D046281DD047283DD13DE0662818D0E8
:1014C00067287ED138E00021112F01DB112000E0D8
:1014D000781CCDE9000106A90EA8FFF7DDFCDDE9C7
:1014E0000F010E9A03910021009207F1010A049165
:1014F0004DE04FF000400097CDE9011006A90EA87D
:10150000FFF7CAFCDDE90F0203920E9B119900223E
:10151000DDF80CA00093049211B9791C00EB010ACC
:10152000B7EB0A0004D4C0F1FF3007F1010A0490C0
:10153000AAEB0700019044E0012F00DA0127002107
:10154000112F01DD112000E03846CDE9000106A988
:101550000EA8FFF7A1FCDDE90F010E9A039100210F
:1015600004910092BA4621070CD40399514500DA40
:101570008A46BAF1010F05DD009AAAF10101515C1A
:10158000302908D0B84202DA10F1040F06DA01213E
:10159000CDE9011015E0AAF10101E9E7002805DC19
:1015A000049901440491AAEB000102E0411C514559
:1015B00000DD8A460499401A401C01904FF000401B
:1015C0000290200704D40198504501DBCDF8048037
:1015D00000208DF84F0002980DF14F07B0F1004F39
:1015E00025D02B200E9002984FF0020800280CDA2C
:1015F000404202902D200E9007E00A210298FEF74B
:1016000042FF3031029007F8011DB8F10001A8F146
:101610000108F2DC02980028EFD1791E0E980870BC
:10162000307800F0200040F0450007F8020D12A8C5
:10163000C01B00F107081498007800B1012000EBEE
:101640000A01019801EBE07105984144401A401EDF
:101650000590E00306D45B462146179A059800F0F2
:101660005DF805441498007818B15A4617999047C8
:101670006D1CE00324D55B462146179A059800F0BF
:101680004DF805441CE00498002807DBDDE9030160
:10169000884203DD0098405C179901E017993020DB
:1016A0005A469047049805F10105401C04900198A2
:1016B000401E019004D12E205A46179990476D1C68
:1016C000BAF10001AAF1010ADDDC05E017F8010B0F
:1016D0005A46179990476D1CB8F10001A8F101080E
:1016E000F4DC5B462146179A0598ABE62D00000016
:1016F0002B000000200000002DE9F04104460025E9
:101700001E461746880404D405E039462020B04719
:101710006D1C641EF9D52846BDE8F0812DE9F04125
:10172000044600251E469046C80301D5302700E038
:101730002027880404D505E041463846B0476D1C93
:10174000641EF9D52846BDE8F08100004FF0E02185
:10175000096921F004014FF0E0221161C21700EB8A
:101760005272C2F3C702074B1A701946097801EB8F
:101770004102C2EBC1114FF6FF7202EAC101024AF7
:10178000118070471C0000201E00002000BF054A89
:10179000128802F04002002AF9D0C2B2014B1B1D90
:1017A0001A807047003801401148C06940F00100BC
:1017B0000F49C86141F61F40890408853220888599
:1017C0004007808940F0010088811C200121814070
:1017D0004209920002F1E022C2F8001100BF4FF06E
:1017E0008040008840F001004FF080410880704741
:1017F000001002401CB50920FFF732FAFFF7D4FFB2
:101800004FF4E13000F048F84820FFF79FFFFFF762
:101810009FF81BA0FFF720FB31E032210620FFF7E5
:101820005BF9824632210720FFF756F9834650467E
:10183000FEF7D9FD0746144A144BFEF75DFD054639
:10184000FEF705FE04465846FEF7CDFD07460E4A54
:101850000E4BFEF751FD0546FEF7F9FD8146484661
:10186000FEF7E2FD05460E462046FEF7DDFD074683
:101870003A460B4606A0CDE90056FFF7EDFACCE755
:1018800073746172740D0A004A0C022B8716B93FFB
:1018900025662C25660000002DE9F05F04466048AF
:1018A000806940F004005E4988615E48006820F06D
:1018B000F0005C4908600846006840F0B00008602D
:1018C0000846006820F4706008600846006840F42C
:1018D000006008605248806940F480405049886147
:1018E0005148008820F480504F490880081D008826
:1018F00020F44050091D0880081F008840F00800AF
:10190000091F08800846008840F004000880084647
:10191000008840F0200008802001FEF75FFD80462F
:1019200041464248FEF7AAFC05462846FEF768FDF8
:1019300086B23046FEF752FD80462946FEF769FC26
:1019400007464FF6FF7000EA06164FF0834138460F
:10195000FEF762FC81463046FEF740FD824649466E
:10196000FEF702FC8046FEF74BFD2F49091F088059
:10197000252005224FF0020C4FF001081346C3F159
:10198000070BBBF1040F02D94FF0040B01E0C3F1C8
:10199000070BDA4603F1040BBBF1070F02D24FF03D
:1019A000000B01E0A3F1030BD9464FF0010B0BFA3A
:1019B0000AFBABF1010B0BEA0C0B0BFA09FB4FF026
:1019C000010E0EFA09FEAEF1010E0EEA080E4BEA08
:1019D0000E0100BF002809DA0A074FEA126C144A08
:1019E00000F00F031B1F02F803C003E00A07130EE9
:1019F000104A135400BF252000F01F02012191401E
:101A00004209920002F1E022C2F8001100BF06482C
:101A1000008840F4005004490880BDE8F09F0000B1
:101A200000100240040801400C3801404054894C29
:101A300018ED00E000E400E0581A00080000002063
:101A400020000000780E0008781A0008200000200E
:101A5000000A0000880E00080000000000000000DE
:101A60000000000000000000000000000000000076
:081A700000000000000000006E
:0400000508000131BD
:00000001FF
